{
  "contractName": "TodoList",
  "abi": [
    {
      "inputs": [],
      "payable": false,
      "stateMutability": "nonpayable",
      "type": "constructor"
    },
    {
      "constant": true,
      "inputs": [],
      "name": "taskCount",
      "outputs": [
        {
          "internalType": "uint256",
          "name": "",
          "type": "uint256"
        }
      ],
      "payable": false,
      "stateMutability": "view",
      "type": "function"
    },
    {
      "constant": true,
      "inputs": [
        {
          "internalType": "uint256",
          "name": "",
          "type": "uint256"
        }
      ],
      "name": "tasks",
      "outputs": [
        {
          "internalType": "uint256",
          "name": "id",
          "type": "uint256"
        },
        {
          "internalType": "string",
          "name": "content",
          "type": "string"
        },
        {
          "internalType": "bool",
          "name": "completed",
          "type": "bool"
        }
      ],
      "payable": false,
      "stateMutability": "view",
      "type": "function"
    },
    {
      "constant": false,
      "inputs": [
        {
          "internalType": "string",
          "name": "ct",
          "type": "string"
        }
      ],
      "name": "newTask",
      "outputs": [],
      "payable": false,
      "stateMutability": "nonpayable",
      "type": "function"
    },
    {
      "constant": false,
      "inputs": [
        {
          "internalType": "uint256",
          "name": "_id",
          "type": "uint256"
        }
      ],
      "name": "completeTask",
      "outputs": [],
      "payable": false,
      "stateMutability": "nonpayable",
      "type": "function"
    }
  ],
  "bytecode": "0x60806040526000805534801561001457600080fd5b506100596040518060400160405280600a81526020017f446f20776f726b6f7574000000000000000000000000000000000000000000008152506100a260201b60201c565b61009d6040518060400160405280600981526020017f5265616420626f6f6b00000000000000000000000000000000000000000000008152506100a260201b60201c565b610202565b6100aa61013a565b60405180606001604052806000808154600101919050819055815260200183815260200160001515815250905080600160008054815260200190815260200160002060008201518160000155602082015181600101908051906020019061011292919061015d565b5060408201518160020160006101000a81548160ff0219169083151502179055509050505050565b604051806060016040528060008152602001606081526020016000151581525090565b828054600181600116156101000203166002900490600052602060002090601f016020900481019282601f1061019e57805160ff19168380011785556101cc565b828001600101855582156101cc579182015b828111156101cb5782518255916020019190600101906101b0565b5b5090506101d991906101dd565b5090565b6101ff91905b808211156101fb5760008160009055506001016101e3565b5090565b90565b6104ed806102116000396000f3fe608060405234801561001057600080fd5b506004361061004c5760003560e01c80638d97767214610051578063b6cb58a51461010a578063c10f9b1d14610128578063e1e29558146101e3575b600080fd5b61007d6004803603602081101561006757600080fd5b8101908080359060200190929190505050610211565b604051808481526020018060200183151515158152602001828103825284818151815260200191508051906020019080838360005b838110156100cd5780820151818401526020810190506100b2565b50505050905090810190601f1680156100fa5780820380516001836020036101000a031916815260200191505b5094505050505060405180910390f35b6101126102e0565b6040518082815260200191505060405180910390f35b6101e16004803603602081101561013e57600080fd5b810190808035906020019064010000000081111561015b57600080fd5b82018360208201111561016d57600080fd5b8035906020019184600183028401116401000000008311171561018f57600080fd5b91908080601f016020809104026020016040519081016040528093929190818152602001838380828437600081840152601f19601f8201169050808301925050505050505091929192905050506102e6565b005b61020f600480360360208110156101f957600080fd5b810190808035906020019092919050505061037e565b005b6001602052806000526040600020600091509050806000015490806001018054600181600116156101000203166002900480601f0160208091040260200160405190810160405280929190818152602001828054600181600116156101000203166002900480156102c35780601f10610298576101008083540402835291602001916102c3565b820191906000526020600020905b8154815290600101906020018083116102a657829003601f168201915b5050505050908060020160009054906101000a900460ff16905083565b60005481565b6102ee6103f0565b604051806060016040528060008081546001019190508190558152602001838152602001600015158152509050806001600080548152602001908152602001600020600082015181600001556020820151816001019080519060200190610356929190610413565b5060408201518160020160006101000a81548160ff0219169083151502179055509050505050565b60008090505b6000548110156103ec5781600160008381526020019081526020016000206000015414156103df57600180600083815260200190815260200160002060020160006101000a81548160ff0219169083151502179055506103ec565b8080600101915050610384565b5050565b604051806060016040528060008152602001606081526020016000151581525090565b828054600181600116156101000203166002900490600052602060002090601f016020900481019282601f1061045457805160ff1916838001178555610482565b82800160010185558215610482579182015b82811115610481578251825591602001919060010190610466565b5b50905061048f9190610493565b5090565b6104b591905b808211156104b1576000816000905550600101610499565b5090565b9056fea265627a7a72315820334f2efe7d0b2e506f69236a42279487ad259fe9d9d298071efad1741bbc229364736f6c63430005100032",
  "source": "pragma solidity ^0.5.0;\r\n\r\ncontract TodoList {\r\n    \r\n    struct Task{\r\n        uint id;\r\n        string content;\r\n        bool completed;\r\n    }\r\n\r\n    uint public taskCount = 0;\r\n    mapping(uint => Task) public tasks;\r\n\r\n    constructor() public {\r\n        newTask(\"Do workout\");\r\n        newTask(\"Read book\");\r\n    }\r\n\r\n    function newTask(string memory ct) public{\r\n        Task memory newT = Task(++taskCount,ct,false);\r\n        tasks[taskCount] = newT;\r\n    } \r\n\r\n    function completeTask(uint _id) public {\r\n        for (uint256 index = 0; index < taskCount; index++) {\r\n            if(tasks[index].id == _id){\r\n                tasks[index].completed = true;\r\n                break;\r\n            }\r\n        }\r\n    }\r\n}",
  "sourcePath": "D:/Libraries/Desktop/BlockChain/ethereum-todo-list/contracts/TodoList.sol",
  "compiler": {
    "name": "solc",
    "version": "0.5.16+commit.9c3226ce.Emscripten.clang"
  },
  "schemaVersion": "3.4.1",
  "updatedAt": "2021-07-18T14:28:20.253Z",
  "networkType": "ethereum",
  "devdoc": {
    "methods": {}
  },
  "userdoc": {
    "methods": {}
  }
}